:140000001AC0A4C1A4C1A4C1A4C1A4C1A4C1ACC1B4C1D8C139
:14001400D8C1D8C1D8C1D8C1D8C1D8C1D8C1D8C1D8C1000077
:140028000000000000000000000001000000CFE5D4E0CDBFCF
:14003C00DEBFC451D0400AEA08830024E0E7F0E010E0E237AB
:14005000F10711F00192FBCF0083E6E2F0E0A0E6B0E010E025
:1400640000E00BBFE633F10721F0C89531960D92F9CF01D060
:14007800FFCFA8D0969AC19AA3C083B38470843009F49DC008
:14008C00AB9A20906D00222061F4222701E017D100936D0055
:1400A0002224332430926F0020926E008CC040916D00552758
:1400B4004035E0E05E0709F484C04235E0E05E0709F47FC085
:1400C8004335E0E05E0709F47AC04635E0E05E0709F072C085
:1400DC00222700916D00F3D0202E332430927100209270000C
:1400F00080916E0090916F008330E0E09E0799F44090640014
:1401040050906500420C531C509265004092640074D02224DE
:14011800332430926F0020926E0020926D0080916E0090916C
:14012C006F008230E0E09E0781F42090700030907100322C15
:140140002224309265002092640083E090E090936F008093B0
:140154006E0080916E0090916F008130E0E09E07A1F42090BF
:140168007000309071004090620050906300420C531C5092CE
:14017C0063004092620082E090E090936F0080936E00209043
:140190006E0030906F002220B1F43320A1F42090700030900F
:1401A4007100322C2224309263002092620081E090E0909305
:1401B8006F0080936E0003C0222420926D00AB985CCF089510
:1401CC00F89484E088BB83E187BB222422BA88E084BB22BAA1
:1401E00082EF81BB80E48DB92FBC81E08EBD80E090EF9DBDE4
:1401F4008CBD8CE189BF7894089520906200309063002220D9
:1402080011F43320E9F0C1018030E0E09E0764F48095909548
:14021C008F5F9F4F909363008093620082E08093660003C059
:1402300081E0809366008091620090916300805090419BBDF0
:140244008ABD05C0222420926600959894982090640030900F
:140258006500222011F43320E9F0C1018030E0E09E0764F48B
:14026C00809590958F5F9F4F909365008093640082E08093F4
:14028000670003C081E080936700809164009091650080509A
:14029400904199BD88BD05C0222420926700C09897980895A2
:1402A800AA92BA92802F806487B987ED86B986B1807180315B
:1402BC00E1F7A4B0B5B08501B990A99008953A932A930FB9A6
:1402D00080E88EB98EB180788038E1F70FB1229608957AD045
:1402E400AED0249780E0888389838A838B8310C041E050E01A
:1402F80060E070E0288039804A805B80240E351E461E571EFE
:14030C00288239824A825B82288439844A845B844DE450E058
:1403200060E070E05A924A923A922A928A019B0158D02880F2
:1403340039804A805B802016310642065306C4F2249682D087
:1403480024960895189518951895189518950A920FB60A92EC
:14035C009598949809900FBE099018950A920FB60A92C09833
:14037000979809900FBE099018958A939A938FB78A9380E091
:1403840090EF9DBD8CBD80916600813011F4949A95988091AA
:140398006600823011F49498959A80916700813011F4979A7A
:1403AC00C09880916700823011F49798C09A89918FBF99919B
:1403C0008991189518951895189518951895189518951895FA
:1403D400189518953A932A931A930A93089539D07A9250D015
:1403E80051F1772453D019F48C019D0124C00A921A92089FF6
:1403FC00B02CA12C289F902C812C189FA00C911C871C099FB9
:14041000A00C911C871C199F900C811C0A9F900C811C389F32
:14042400800C299F800C1A9F800C0B9F800C199009900B2DEF
:140438001A2D292D382D799018C07A936A935A934A9308955C
:14044C00499159916991799108958A929A92AA92BA92EA93EA
:140460008A939A93AA93BA9389859A85AB85BC850895B9912F
:14047400A99199918991E991B990A990999089902496089561
:14048800EE27E02BE12BE22BE32B0895EE27E82BE92BEA2B2B
:04049C00EB2B0895A9
:00000001FF
