:1400000016C038C138C138C138C138C138C138C138C138C155
:1400140038C138C138C138C138C138C138C138C138C1000017
:14002800000000000000CFE5D4E0CDBFDEBFCE51D0400AEA10
:14003C0008830024E8E6F0E010E0E836F10711F00192FBCFFF
:140050000083E6E2F0E0A0E6B0E010E000E00BBFEE32F107B9
:1400640021F0C89531960D92F9CF01D0FFCF7CD079C083B392
:140078008470843009F474C0AB9A969AC19A08EE13E020E0E2
:14008C0030E0BDD0AB9808EE13E020E030E0B7D0AB9A959A8C
:1400A0009498C098979808EE13E020E030E0ADD0AB9808EEEA
:1400B40013E020E030E0A7D0AB9A9598949AC098979808EEA1
:1400C80013E020E030E09DD0AB9808EE13E020E030E097D011
:1400DC00AB9A95989498C09A979808EE13E020E030E08DD093
:1400F000AB9808EE13E020E030E087D0AB9A95989498C09873
:14010400979A08EE13E020E030E07DD0AB9808EE13E020E044
:1401180030E077D0AB9A959A9498C09A979808EE13E020E06A
:14012C0030E06DD0AB9808EE13E020E030E067D0AB9A95988D
:14014000949AC098979A08EE13E020E030E05DD0AB9896985D
:14015400C19895989498C098979808EE13E020E030E051D044
:1401680086CF089584E088BB83E187BB222422BA88E084BB7B
:14017C0022BA82EF81BB0895AA92BA92802F806487B987ED7A
:1401900086B986B180718031E1F7A4B0B5B08501B990A990AA
:1401A40008950030010749F081E080936200C80180509240F8
:1401B8009BBD8ABD06C082B3856082BB222420926200089580
:1401CC0000300107A9F00030E0E01E0744F4009510950F5F59
:1401E0001F4F82E08093630003C081E080936300C801805092
:1401F400924099BD88BD06C082B3886182BB2224209263000E
:14020800089546D07AD0249780E0888389838A838B8310C0C8
:14021C0041E050E060E070E0288039804A805B80240E351E62
:14023000461E571E288239824A825B82288439844A845B84BD
:140244004DE450E060E070E05A924A923A922A928A019B013E
:1402580024D0288039804A805B802016310642065306C4F2D4
:14026C0024964ED02496089518951895189518951895189541
:140280001895189518951895189518951895189518951895A8
:14029400189518953A932A931A930A93089539D07A9250D056
:1402A80051F1772453D019F48C019D0124C00A921A92089F37
:1402BC00B02CA12C289F902C812C189FA00C911C871C099FFA
:1402D000A00C911C871C199F900C811C0A9F900C811C389F74
:1402E400800C299F800C1A9F800C0B9F800C199009900B2D31
:1402F8001A2D292D382D799018C07A936A935A934A9308959E
:14030C00499159916991799108958A929A92AA92BA92EA932B
:140320008A939A93AA93BA9389859A85AB85BC850895B99170
:14033400A99199918991E991B990A9909990899024960895A2
:14034800EE27E02BE12BE22BE32B0895EE27E82BE92BEA2B6C
:04035C00EB2B0895EA
:00000001FF
